:020000040800F2
:10000000E05F002011030008271E0008D71D00082C
:10001000251E0008D11C0008D5240008000000009F
:10002000000000000000000000000000790200084D
:10003000D31C000800000000BD0200086920000871
:100040002B0300082B0300082B0300082B030008D8
:100050002B0300082B0300082B0300082B030008C8
:100060002B0300082B0300082B0300082B030008B8
:100070002B0300082B0300082B0300082B030008A8
:100080002B0300082B0300082B0300082B03000898
:100090002B0300082B0300082B0300082B03000888
:1000A0002B0300082B0300082B0300082B03000878
:1000B0002B0300082B0300082B0300082B03000868
:1000C0002B0300082B0300082B0300082B03000858
:1000D0002B030008B12200082B0300082B030008A3
:1000E0002B0300082B0300082B0300082B03000838
:1000F0002B0300082B0300082B0300082B03000828
:100100002B0300082B0300082B0300082B03000817
:10011000492200082B0300082B030008CD2000080B
:100120002B0300082B0300082B0300082B030008F7
:1001300000F002F800F090F80AA090E8000C824469
:100140008344AAF10107DA4501D100F085F8AFF246
:10015000090EBAE80F0013F0010F18BFFB1A43F0A5
:1001600001031847DC450000FC450000103A24BF9D
:1001700078C878C1FAD8520724BF30C830C144BF0C
:1001800004680C607047000000230024002500264E
:10019000103A28BF78C1FBD8520728BF30C148BFEA
:1001A0000B6070476E2900F03183702900F09B844A
:1001B000662904F05782652904F05482672904F007
:1001C00051826129AFF3008003681B0A28BF41F008
:1001D0008001692900F00681642900F003817529F6
:1001E00000F000816F2900F02884782900F06784EE
:1001F000E92900F0C383E42900F0C083F52900F069
:10020000BD83EF2900F02584F82900F06684036897
:10021000DB0928BF41F08001632900F03283732994
:1002200000F03783E32900F01D87F32900F02287CF
:10023000002070471FB500F099FF04000020002146
:1002400004F0FAF9401C60600020002104F0DEF99F
:10025000E0601FBD10B510BD00F05BFF1146FFF759
:10026000E9FF02F009FA01F033F803B4FFF7F2FFF7
:1002700003BC02F04BF90000224B19680868B0E893
:10028000F00F80F30988BFF36F8F4FF0000080F309
:1002900011884EF00D0E70470000000006480068FF
:1002A000006880F3088862B661B6BFF34F8FBFF372
:1002B0006F8F00DF00BF00BF08ED00E0EFF30980A3
:1002C000BFF36F8F0F4B1A6820E9F00F106008B56D
:1002D0004FF0500080F31188BFF34F8FBFF36F8F43
:1002E00003F0B2FB4FF0000080F31188BDE8084036
:1002F00019680868B0E8F00F80F30988BFF36F8FC2
:10030000704700BF48000020EFF3058070470000F1
:100310000948804709480047FEE7FEE7FEE7FEE799
:10032000FEE7FEE7FEE7FEE7FEE7FEE704480549D5
:10033000054A064B704700007D2000083101000887
:10034000E0590020E05F0020E05B0020E05B00203F
:10035000704700001CB50C46064B7B446946009074
:10036000204600F06CFA04460020694600F07AFA54
:1003700020461CBD070500000FB4044910B503AAB0
:10038000029800F08BFA10BC5DF814FB30000020DE
:1003900070B50C460546012A05D02878800600D5A0
:1003A000EA69002302E0012305E05B1C934202D2CC
:1003B000E05C0028F9D1A869E618C01AA861286A8B
:1003C00018442862284600F08FF904E0D5E901219D
:1003D00014F8010B9047B442F8D3284600F09AF97C
:1003E00070BD00002DE9F041064600241068752913
:1003F000314616A510D000F09EF9002802DA4042DE
:1004000013A507E031688A0701D512A502E0490764
:1004100004D511A5012401E000F096F900210A227B
:1004200006F1240709E0B0FBF2FCB0FBF2F302FB9B
:100430001C00303078541846491C0028F3D123465C
:100440002A463046BDE8F04100F087B900000000C0
:100450002D0000002B000000200000002DE9F05FBF
:10046000894604464FF0000ADFF874B1FB44C0F837
:1004700020A02046E1688847002874D0252806D0AF
:10048000D4E901219047206A401C2062F1E7002650
:100490005F462046E16888472028054607DB312D66
:1004A00005D2781910F8200C08B10643F1E7B0071F
:1004B00001D526F00406C4F81CA00027C4F818A033
:1004C0002A2D09D0284602F01AF838B304EB870821
:1004D000303DC8F8185019E059F8041B204604EBC9
:1004E00087029161E1688847012F054618D1E069CC
:1004F000002820DA26F020061DE0D8F8180000EBCE
:10050000800005EB40003038C8F818002046E1684C
:100510008847054601F0F3FF0028EED1012F0AD0ED
:100520002E2D08D12046E16888477F1C0546022F02
:1005300046F02006C4DBA069002803DA404246F0FA
:100540000106A061F00701D026F010066C2D0BD03B
:10055000682D09D04C2D39D06A2D35D0742D35D069
:100560007A2D33D016E038E0E1682F4620468847E0
:10057000B842054609D16C2F26D04FF48060E1685F
:10058000064320468847054604E06C2F1AD04FF4F6
:10059000807006430DB3A5F14100192802D820351B
:1005A00046F400664A462946204626604E46FFF736
:1005B000F9FD80B101280BD0F61D26F0070000F1EF
:1005C000080956E74020E4E78020D8E70020D6E776
:1005D00006F104094DE7284652E7206ABDE8F09F7E
:1005E000F841000030B505460B462A4613F8014B8A
:1005F00012F8010B08B1A042F8D01CB1002802D0BB
:100600006D1CF1E7284630BD10B5431C02E010F820
:10061000011B71B18107FAD14FF0013202C88C1A67
:100620008C4314EAC211F9D0C01A0A0603D0C01EC6
:1006300010BDC01A10BD0A0401D0801E10BD0902F1
:10064000FCD0401E10BD032A40F2308010F0030C95
:1006500000F0158011F8013BBCF1020F624498BF15
:1006600011F801CB00F8013B38BF11F8013BA2F1B2
:10067000040298BF00F801CB38BF00F8013B11F02D
:10068000030300F03B82083AC0F0088051F8043BB5
:10069000083A51F804CBA0E80810F5E7121D5CBF3A
:1006A00051F8043B40F8043BAFF30080D20724BF6D
:1006B00011F8013B11F801CB48BF11F8012B24BF01
:1006C00000F8013B00F801CB48BF00F8012B704750
:1006D00002F0FF0343EA032242EA024200F042BA78
:1006E000704770477047704770B504468569006869
:1006F000C10601D5302600E02026C00707D070BD16
:10070000D4E9012130469047206A401C20626D1ECA
:10071000F6D570BD70B5044685690078C00707D16D
:1007200070BDD4E9012120209047206A401C20623E
:100730006D1EF6D570BD09684A0501D540B27047F7
:10074000C905FCD500B2704709684A0501D5C0B299
:100750007047C905FCD580B270472DE9F0470D46BA
:1007600099469246044600F124080168880604D59B
:10077000E06921F01001216000E00120A84201DDC4
:10078000471B00E00027A1697A1902EB0900081A4B
:10079000A0612078C00602D42046FFF7A5FF0026FE
:1007A00008E0D4E901211AF806009047206A401CAD
:1007B000761C20624E45F4DB2078C0060AD5204620
:1007C000FFF792FF06E0D4E9012130209047206A2C
:1007D000401C2062381EA7F10107F4DC07E0D4E9D1
:1007E000012118F805009047206A401C2062281E4D
:1007F000A5F10105F3DC2046FFF78CFF2078000609
:1008000002D50220BDE8F0870120FBE711680268ED
:10081000006A530501D508700AE0D30501D50880A8
:1008200006E0130603D5C217C1E9000200E0086024
:100830000120704701694A1C02610878704700B5C1
:100840008FB0CDE901310021059105497944CDE909
:10085000031011466846FFF701FE0FB000BD00000F
:10086000E5FFFFFF0A6802F8010B0A60704710B548
:10087000436913B1AFF3008001E0FFF789FD012068
:1008800010BD127800F124010A7000224A70012282
:10089000EDE711684FF0FF32E9E70000074B70B554
:1008A0000D467B44FFF7CBFF0446284600F0E6FBED
:1008B00010B14FF0FF3070BD204670BD5B1D0000D1
:1008C0002DE9FF5F15468A460446DFF8AC80F84400
:1008D0000027D8E900103E46CDE9001010E03AF8B4
:1008E00016106A4602A800F0CDFB411C07D0217803
:1008F000890603D5E269391891420DD80744761C60
:100900002078800602D5E069B84205DDAE42E6DB1C
:100910003AF816000028E2D1A069C01BA061204669
:10092000FFF7E2FED8E90010CDE90010002017E043
:100930003AF818106A4602A800F0A4FBB0F1FF3F95
:1009400081460BD000250DF1080B05E0D4E901210B
:100950001BF8050090476D1C4D45F7D308F10100C9
:10096000B0428046E4DB206A384420622046FFF72C
:10097000D1FEBDE8FF9F0000AA3D00002DE9F04137
:100980008046D21D22F007020025D2E90002F52997
:1009900015A614D0011E72F1000106DA0023D0EB77
:1009A000030063EB020211A608E0D8F800108B07E1
:1009B00001D50FA602E0490701D50EA60125114673
:1009C000002408F1240704E000F0F0F830323A5532
:1009D000641C50EA0102F7D12B46324621464046BC
:1009E000BDE8F041FFF7B9BE000000002D00000097
:1009F0002B0000002000000030B4002100F124048E
:100A000008E002F00705D208303542EA4372DB08FD
:100A10006554491C52EA0305F3D10468002310A26F
:100A2000250707D5A40600D421B1C46901230DA26E
:100A3000641EC46130BCFFF790BE10B50446214669
:100A40001068FFF781FE02462046BDE810400023F3
:100A5000D2E7D21D22F00701D1E90023CCE7000044
:100A60000000000030000000F0B40D4601880905C8
:100A700002D5214C7C4402E01F4C7C440E34002102
:100A800000F1240608E002F00F071209E75D42EAD0
:100A900003721B097754491C52EA0307F3D1027809
:100AA0000023120704D5702D06D009B1022311349A
:100AB0002246F0BCFFF751BE01231034F8E770B5B1
:100AC00004460D4621461068FFF73EFE02462946C1
:100AD0002046BDE870400023C6E7D21D22F0070380
:100AE000D3E90023C0E70368126843F020030360E2
:100AF0000823C3610023B7E70C3C000010B5203A7F
:100B0000C0F00B80B1E81850203AA0E81850B1E8C6
:100B10001850A0E81850BFF4F5AF5FEA027C24BF7C
:100B2000B1E81850A0E8185044BF18C918C0BDE873
:100B300010405FEA827C24BF51F8043B40F8043B3C
:100B400008BF7047D20728BF31F8023B48BF11F8F1
:100B5000012B28BF20F8023B48BF00F8012B70474B
:100B60004FF000020429C0F0128010F0030C00F0D6
:100B7000AB82CCF1040CBCF1020F18BF00F8012BC2
:100B8000A8BF20F8022BA1EB0C0100F09DBA5FEA90
:100B9000C17C24BF00F8012B00F8012B48BF00F8EE
:100BA000012B7047004870478059002030B5B0F1E4
:100BB0000A024FEA900E71F100034EEA817EB0EB1B
:100BC0000E0061EB91014FEA101E4EEA017E10EB20
:100BD0000E0041EB11114FEA102E4EEA016E10EBA0
:100BE0000E0041EB11214FEA104E4EEA014E10EB80
:100BF0000E0041EB1141401841F100014FEAD000D5
:100C000040EA41704FEAD10110EB80054FEA8104C0
:100C100044EA907444EB01046D1944EB0404521B44
:100C2000A3414FF0000348BF0A3200D530BD401C3D
:100C300041F1000130BD70472DE9FF4F0C461E46C3
:100C40004FF0FF378BB0D2E90001DDF860800A90E9
:100C50008A46C1F30A5505B93D46002108464FF0C2
:100C60000000BAF1000F00F4400005DA00EB80004C
:100C70004FF4400101EA50004FEA9059B9F1010FD9
:100C800000DDB9460A9850EA4A000ED044F61050EA
:100C9000A5F2FF3545432F14B8F1000F1ED0754261
:100CA000291E1EDDC9F100021CE0B8F1010F4FF052
:100CB000000001D0302103E0F24305E02154401C44
:100CC000B042FBDB30460022002121540B99C1F8D1
:100CD0000880C1E900200FB0BDE8F08FBD1B6D1C7E
:100CE000DEE74A4600DA694206A800F083FA06AB5E
:100CF00093E8070003AB83E8070050460A9900F029
:100D000031FB8DE80700A0F500501F3800900398D4
:100D1000002D09DD42F21F014A46084403A9039051
:100D2000684600F090FD08E0A0F500504A461F38E4
:100D300003A90390684600F09AFD8DE807000004BF
:100D4000000C03D04FF0FF30410800E01046B8F12E
:100D5000000F03D00022009215461EE0751E05D438
:100D6000FFF724FF303262556D1EF9D5B3460122DC
:100D7000084302D000227F1C04E02078302801D1F3
:100D800000227F1E002A099786D01DE0112D07DA68
:100D9000FFF70CFF303262556D1C50EA0102F5D1AD
:100DA000084302D00098C8B10EE00021681E05E09B
:100DB000235C625C63542254401E491C8142F7DB71
:100DC000AB46A81B401E0990002004F80B000B98AE
:100DD000099AC0F80880C0E9002B7CE711264FF083
:100DE000000859E72DE9F04F88460446D21D22F04D
:100DF000070191B0D1E90001CDE90A0101F06BFBD7
:100E000002460B98C00F01D02D2007E02068810713
:100E100001D52B2002E0202101EAC000032A09901D
:100E200001D0072A05DB03464146204600F0A2F91F
:100E30000BE12078800601D5E06900E00620B8F1DA
:100E4000650F814606D0B8F1660F18D0B8F1670F6C
:100E500070D131E00020B9F1110F009001DB1123B6
:100E600001E009F101030AAA01A90CA8FFF7E4FEB9
:100E7000DDE90C70002609F10105834647E00120F9
:100E80004B4600904FF000470AAA01A90CA8FFF7B3
:100E9000D3FEDDE90DB00C995D46002610B909F1CD
:100EA00001000D18B9EB050003D4C0F1FF3609F1BC
:100EB0000105A5EB09002BE0B9F1010F01DA4FF0B4
:100EC00001090020B9F1110F0090484601DD1123FE
:100ED00000E003460AAA01A90CA8FFF7ADFEDDE970
:100EE0000C704D4600268346207800070AD4AB4597
:100EF00000DA5D4601A8012D04DD411911F8011C3D
:100F0000302907D04F4502DA17F1040F04DA012027
:100F100082460FE06D1EEEE7002F02DCED1B3E4423
:100F200003E0781CA84200DD7D1CB81B00F1010A1B
:100F30004FF000472078000703D4AA4501DB4FF0AB
:100F4000FF3A0021B7F1004F0DF143088DF843102F
:100F500024D002202B23002F01DA7F422D230A21E7
:100F6000021EA0F1010000DC5FB197FBF1FC97FBD2
:100F7000F1F201FB1C7C17460CF1300C08F801CD96
:100F8000EEE7A8F1010003702188090501D545218C
:100F900000E06521A0F1010800F8011C09980FA9E3
:100FA000A1EB0807FF1D00B10120411901EBEA7018
:100FB000A1693844081A401EA0612078C00602D4F6
:100FC0002046FFF791FB099828B1D4E90121904709
:100FD000206A401C20622078C00622D52046FFF7F8
:100FE00083FB1EE0002E04DBB34502DD01A8805D1B
:100FF00000E03020D4E901219047206A401C2062A3
:10100000761CAAF101005FEA000A0AD100F0AEF8EE
:10101000C0680168405CD4E901219047206A401C07
:101020002062281EA5F10105DCDC07E0D4E90121DE
:1010300018F8010B9047206A401C2062381EA7F167
:101040000107F3DC2046FFF765FB032011B043E600
:1010500010B5436913B1AFF3008001E0FFF730FC36
:10106000012010BD128800F1240182840022C28474
:101070000122EDE711684FF0FF32E9E7007B00F055
:101080008000704770B516460C46054600F066F8BD
:10109000036893F80101012806D0FF2C0FD8185DD2
:1010A00068B101202C7070BDD3F80701324621468B
:1010B00003F2071303442846BDE8704018474FF079
:1010C000FF3070BD4FF0000200B5134694469646BF
:1010D000203922BFA0E80C50A0E80C50B1F120014B
:1010E000BFF4F7AF090728BFA0E80C5048BF0CC0F9
:1010F0005DF804EB890028BF40F8042B08BF704757
:1011000048BF20F8022B11F0804F18BF00F8012BC8
:1011100070477546FFF746FDAE46050069465346E3
:1011200020F00700854618B020B5FFF7FFF8BDE8AE
:1011300020404FF000064FF000074FF000084FF03E
:10114000000B21F00701AC46ACE8C009ACE8C009CF
:10115000ACE8C009ACE8C0098D46704710B500F096
:1011600005F8001D10BD00BFD134000000487047D5
:10117000A05900202DE9F0411F46044603260168CE
:10118000072A01F4006004DB08B116A505E016A5E6
:1011900003E008B115A500E015A521F010002060BE
:1011A000A069C01EA0610FB1401EA0612046FFF7DC
:1011B0009BFA4FB1D4E9012138469047206A401C80
:1011C0002062C01C206206E0206AFAE7D4E901210F
:1011D00015F8010B9047761EF8D22046FFF79AFAD1
:1011E000BDE8F0814E414E006E616E00494E4600F2
:1011F000696E66002DE9F047814616468AB033488D
:1012000078440DC88DE80D0030487844801C03AC4C
:101210000DC884E80D0041F69B300844372190FB4F
:10122000F1F290FBF1F5A5F1800501FB12041B3CE6
:1012300002D56442012000E00020DFF890A0804643
:101240000027FA44AAF1BE0A0DE0E00709D03246B1
:10125000684607EB47010AEB810100F008FB8DE8C7
:10126000070064107F1C002CEFD1184F7F44AC3F67
:1012700018E0E80714D007EB04100DF1180A90E805
:101280000E008AE80E00C068F04201D1981908905B
:10129000324606A903A800F0EAFA03AB83E8070088
:1012A0006D10641C002DE4D132466946B8F1000F80
:1012B00003A802D000F0C7FA01E000F0D8FAC9E9AB
:1012C0000001C9F808200AB0BDE8F0872435000005
:1012D00010B50446AFF300802046BDE81040FEF78D
:1012E000C4BF00004FF0013C50F8042B51F8043B00
:1012F0009A4221D1A2EB0C03934313EACC1317D1EA
:1013000050F8042B51F8043B9A4215D1A2EB0C0380
:10131000934313EACC130BD150F8042B51F8043B40
:101320009A4209D1A2EB0C03934313EACC13DBD00E
:101330004FF00000704700BFD01A01BAB1FA81F136
:1013400001F0180122FA01F0CB40C1F12001DBB21B
:10135000C0B2C01A2CFA01F3D11A914311EAC31199
:10136000E6D170475FEA400C08BF91F0000F4FEAEA
:101370008C234FEAC12243EA51514FEA1C5018BF57
:1013800000F5F0404FEA300018BF41F000415FEA3D
:101390006C5C00F02980BCF1FF3F08BF40F080404A
:1013A0007047130C06BF12044FF0100C4FF0000CE6
:1013B000130E04BF12020CF1080C130F04BF12012C
:1013C0000CF1040C930F04BF92000CF1020CD30F2C
:1013D00004BF52000CF1010C11464FF00002A0F1C5
:1013E0001F00A0EB0C00704711F0004F08BF7047C2
:1013F00031F000413FF4D5AF0B0C06BF09044FF0AC
:10140000100C4FF0000C0B0E04BF09020CF1080C7D
:101410000B0F04BF09010CF1040C8B0F04BF8900F2
:101420000CF1020CCB0F04BF49000CF1010CCCF104
:101430002003A0EB0C0022FA03F302FA0CF241EABB
:10144000030100F10100704720F07F4C80EA0300A7
:1014500023F07F47ACEB070303F57C5300F000401B
:1014600003F1FF032DE980494FEA154B09B44FEA18
:10147000144325EA0B4E24EA03480FF2042606EB38
:10148000132749083E785FEA320203FB0667C7F577
:10149000000707FB06F64FEA54374FEAD64606F137
:1014A000020607FB066CCCF1005C4FEA1C472CEAF5
:1014B000074C07FB06F40CFB06F504EB15464FEA58
:1014C000961634BF00204FF000404FEAD13706FB9C
:1014D00007FC4FEA1C4C0CFB0BF7D21B03FB0CF771
:1014E00061EB07010CFB0EF7B0EB074072EB174204
:1014F0000CFB08F734BFA2EB0742B2EB074261EBEB
:1015000017414FEA0C444FEA910706FB07FC4FEAEC
:101510001C4C0CFB0BF7B0EBC74072EB573203FBD4
:101520000CF734BFA2EBC742B2EBC74261EB5731B5
:101530000CFB0EF7B0EBC70072EB57720CFB08F711
:1015400034BFA2EBC702B2EBC70261EB5771039F36
:101550004FEA816141EA921104EBCC044FEAD137A2
:101560004FEA826206FB07FC42EA90124FEA806073
:101570004FEA1C4C0CFB0BF7D21B03FB0CF761EB87
:1015800007010CFB0EF7B0EB074072EB17420CFBA8
:1015900008F734BFA2EB0742B2EB074261EB1741F9
:1015A0004FEA8C554FEA910704EB9C2406FB07FC9D
:1015B0004FEA1C4C0CFB0BF7B0EBC74072EB5732F9
:1015C00003FB0CF734BFA2EBC742B2EBC74261EB9F
:1015D00057310CFB0EF7B0EBC70072EB57720CFBE8
:1015E00008F734BFA2EBC702B2EBC70261EB577139
:1015F00015EB4C254FEA816141EA92114FEA826274
:101600004FEAD13742EA901206FB07FC44F100048E
:101610004FEA80604FEA1C4C0CFB0BF7D21B03FB1C
:101620000CF761EB07010CFB0EF7B0EB074072EB18
:1016300017420CFB08F734BFA2EB0742B2EB07429C
:1016400061EB174115EB1C154FEA813141EA9241DC
:101650004FEA823242EA90424FEA80304FEA0C76FB
:1016600044F1000448EA03434EEA0B484FF0000EF1
:10167000B2EB080C71EB030724BF624639464EEB10
:101680000E0E4FF0000B0018524149414BEB0B0B73
:10169000B2EB080C71EB03077BF1000B24BF624631
:1016A00039464EEB0E0E4FF0000B001852414941E7
:1016B0004BEB0B0BB2EB080C71EB03077BF1000B50
:1016C00024BF624639464EEB0E0E51EA020718BFA0
:1016D00046F0010616EB0E7655F1000254F10001BA
:1016E00003D5BDE88901BDE80088BDE88901BDE8F2
:1016F0000048B619524141EB0101A3F101037047C3
:1017000080807F7E7D7C7B7A79787776767574733E
:10171000727171706F6E6E6D6C6C6B6A6A696868FD
:10172000676666656464636362616160605F5F5E93
:101730005E5D5D5C5C5B5B5A5A5959585857575609
:10174000565555555454535352525251515050506E
:101750004F4F4F4E4E4D4D4D4C4C4C4B4B4B4A4AC0
:101760004A49494948484847474747464646454504
:10177000454444444443434343424242424141413D
:10178000002B26D4770021D01CB54FEA370703B4CD
:101790004FF010004FF010014FF000000FBCBDE8FB
:1017A00010400BF1010BBBF1010F08BF5FEA1707F7
:1017B00022BF12F1010211F101014FF0004143F18A
:1017C000000300F0004043EA00007047F9D35708D7
:1017D000DAE746EA064613F1400F4FEA16461FDDE8
:1017E00013F1200FDFBF16430A46002120335B426E
:1017F000C8D0C3F1200746EA064602FA07F74FEAC7
:10180000164646EA0706C3F1200722FA03F201FA58
:1018100007F721FA03F14FF0000342EA0702B1E7AC
:1018200046EA020646EA06464FEA164646EA010638
:10183000BCBF46EA0646360C4FF000034FF00002EC
:101840004FF000019EE72DE9C048934630B491E87F
:10185000380007C831EA400C48BF34EA430C03D5CE
:10186000FFF7F2FDFFF78CFFF0BCBDE800882DE923
:10187000C048934630B491E8380007C810F0804F54
:1018800008BF13F0804F03D100F005F8FFF778FF91
:10189000F0BCBDE8008820F07F4780EA030023F019
:1018A0007F4C07EB0C03A3F57C5300F00040A3F141
:1018B000FE0392F0000F00F0B38095F0000F00F0EF
:1018C00077802DE901494FEA11404FEA144621EA99
:1018D000004800FB06FC24EA064708FB06F607FB67
:1018E00008F800FB07F718EB06484CEB164C4FEADC
:1018F000124B18EB07484FEA15464CEB174022EA0B
:101900000B4E0BFB06FC25EA06470EFB06F607FB13
:101910000EFE0BFB07F71EEB064E4CEB164C4FF082
:1019200000061EEB074E4CEB174B18EB0B0840F173
:10193000000018EB0E0B58EB000840F100008F1A66
:101940004FF000013CBFC943661B14BFB5EB040C4C
:1019500000213CBFC943F61B4FEA17444EEA8E0EE6
:1019600027EA04454FEA1C4704FB07622CEA074CB0
:1019700005FB07F70CFB05F604FB0CFC16EB074612
:1019800042EB174216EB0C4642EB1C421BEB0606E1
:1019900058EB0202414146EA9E0601D5BDE80189A5
:1019A000B619524141EB0101A3F10103BDE80189E0
:1019B0004FEA14454FEA114724EA054621EA074C4D
:1019C00005FB07F406FB07F70CFB06F105FB0CFC17
:1019D00011EB074144EB17444FEA124711EB0C415E
:1019E00044EB1C4422EA074C05FB07F206FB07F711
:1019F0000CFB06F605FB0CFC16EB074642EB174208
:101A000016EB0C4642EB1C456A1854F1000148BF26
:101A10007047B619524141EB0101A3F10103704730
:101A200095F0000F37D04FEA11424FEA144721EAF0
:101A3000024624EA074C02FB07F106FB07F70CFB02
:101A400006F402FB0CFC14EB074441EB17414FEA90
:101A5000154714EB0C4441EB1C4125EA074C02FBF3
:101A600007F506FB07F70CFB06F602FB0CFC16EB72
:101A7000074645EB174516EB0C4645EB1C42121981
:101A800051F1000148BF7047B619524141EB0101C5
:101A9000A3F1010370474FEA14454FEA114724EAC6
:101AA000054621EA074C05FB07F106FB07F70CFB8F
:101AB00006F24FF0000605FB0CFC12EB074241EB6F
:101AC000174112EB0C4251EB1C4148BF7047921872
:101AD00041EB0101A3F1010370470029816802D0A5
:101AE00041F0010101E021F0010181607047000037
:101AF0000D4910B5884202D1012144150AE00B4975
:101B0000884202D10121041504E0094988420AD122
:101B10000121CC03204600F0F1F92046BDE8104039
:101B2000002100F0EBB910BD002401400028014065
:101B3000003C0140014600208968490700D501208A
:101B40007047C06C80B270470246002012680A429B
:101B500000D001207047014600208968090700D5A0
:101B60000120704710B542680E4B0C791A400B6883
:101B700042EA04221343436082680B4B1A40D1E9C6
:101B8000024323434C7942EA440213438360C26A0E
:101B9000097C22F47002491EC9B242EA0151C162B5
:101BA00010BD0000FFFEF0FFFDF7F1FF70B5072646
:101BB00009290AD9C568A1F10A0404EB4404A64026
:101BC000B543A3401D43C56007E0056901EB41042F
:101BD000A640B543A3401D4305611F23072A09D230
:101BE000446B521E02EB820293409C4391400C4393
:101BF000446370BD0D2A09D2046BD21F02EB82022E
:101C000093409C4391400C43046370BDC46A0D3AF9
:101C100002EB820293409C4391400C43C46270BD2E
:101C2000816841F00801816070470029816802D015
:101C300041F4A00101E021F4A001816070478168B6
:101C400041F004018160704730B587B001214FF445
:101C5000027000F047F94FF4004000F021F9022033
:101C6000ADF8140000248DF8174005A9164800F0BF
:101C700031F8164D2846FFF73BFF4FF46020CDE9C1
:101C8000020401208DF804408DF8100000948DF8B6
:101C9000054069462846FFF765FF01212846FFF702
:101CA0001CFF2846FFF7BCFF2846FFF754FF00281B
:101CB000FAD12846FFF7C3FF2846FFF73BFF00286D
:101CC000FAD107B030BD0000000C014000240140F3
:101CD000FEE77047F0B5CC78002204F00F03E4066D
:101CE00001D58C7823430C784FF00F0C14F0FF0FC4
:101CF0004FF0010E1BD005680E880EFA02F4264044
:101D0000A64210D196000CFA06F725EA070703FA57
:101D100006F5CE783D43282E02D0482E02D002E0B0
:101D2000446100E00461521C082AE5D305600A887A
:101D3000FF2A1CD94468002202F108060EFA06F5B3
:101D40000E882E40AE420ED196000CFA06F7BC4328
:101D500003FA06F7CE783C43282E00D14561CE78B1
:101D6000482E00D10561521C082AE5D34460F0BD1D
:101D70000161704710B50B4C014607230122204634
:101D8000FFF714FF01212046FFF74FFF02212046F5
:101D9000FFF7DAFE0028F9D02046BDE81040FFF733
:101DA000D0BE0000002401402DE9F04100250E4680
:101DB00007462C4608E03846FFF7DCFF05440520BF
:101DC00000F0E8FB641CE4B2B442F4D3B5FBF6F0D7
:101DD00080B2BDE8F081FEE738B50121402000F077
:101DE00081F80120ADF8000010208DF803000320D9
:101DF0000B4C8DF8020069462046FFF76BFF01216E
:101E00002046FFF7B5FF0221ADF8001069462046D5
:101E1000FFF760FF02212046FFF7AAFF38BD000050
:101E200000180140FEE7704730B50F23C2780178F3
:101E30000125F2B1144A126801F1E02102F4E062D6
:101E4000C2F5E062120AC2F10404D3404278A24013
:101E500084781C401443220181F80024007800F0AB
:101E60001F018D404009800000F1E020C0F80051C2
:101E700030BD01F01F0085404809800000F1E020DE
:101E8000C0F8805130BD00000CED00E0024908436D
:101E900002490860704700000000FA050CED00E000
:101EA000034A516821F440410143516070470000EA
:101EB00000100240044A0029D16901D0014300E02A
:101EC0008143D1617047000000100240044A00299C
:101ED000116901D0014300E08143116170470000A6
:101EE00000100240044A0029916901D0014300E03A
:101EF000814391617047000000100240044A0029AC
:101F0000D16801D0014300E08143D16070470000F7
:101F10000010024030B5204A5168204B11F00C01EE
:101F200003D0042901D0082901D0036012E05168D0
:101F3000536801F470114FF0020413F4803F04EB76
:101F4000914102D053689B0301D5154B00E0134B20
:101F50005943016051680F2303EA1111114B5C5C76
:101F60000168E14041605468072505EA14241C5DBE
:101F700021FA04F48460546805EAD4241B5DD94036
:101F8000C1605268032303EA9232064B1B1F9A5C1E
:101F9000B1FBF2F1016130BD0010024000127A0085
:101FA00000093D00380000200CB5002226480092B0
:101FB0000192016841F4803101604FF4A06301682F
:101FC00001F4003101910099491C0091019911B966
:101FD00000999942F3D10168890333D50121019118
:101FE0001A490A6842F010020A600A6822F00302E5
:101FF0000A600A6842F002020A6041684160416872
:102000004160416841F480614160416821F47C1184
:102010004160416841F4E8114160016841F080711C
:10202000016001688901FCD5416821F0030141602C
:10203000416841F0020141604168C1F38101022918
:10204000FAD10CBD01920CBD0010024000200240EC
:102050004FF0E0210428086903D020F00400086153
:10206000704740F00400FAE710B502F073F8012859
:1020700003D0BDE8104001F061BD10BD0F4810B5A0
:10208000016841F00101016041680D4A1140416061
:1020900001680C4A11400160016821F4802101604F
:1020A000416821F4FE0141604FF41F018160FFF798
:1020B0007BFF05494FF00060086010BD0010024032
:1020C0000000FFF8FFFFF6FE08ED00E010B50B4C36
:1020D0000121204600F053F800280ED0084801885E
:1020E00041F4004101800121204600F03BF82046E8
:1020F000BDE81040002100F038B810BD00140040C9
:10210000280000207FB50D46044601212020FFF75E
:10211000D1FEADF80440ADF800500024104DADF8EC
:102120000640ADF802406946284600F03FF801221B
:102130001146284600F02FF80121284600F015F836
:1021400037208DF80C008DF80D4002208DF80E0020
:1021500001208DF80F0003A8FFF766FE7FBD000089
:1021600000140040C943018270470029018802D051
:1021700041F0010101E021F00101018070470246B8
:102180000020138A92890B4202EA010202D0002A3F
:1021900000D001207047002A828901D00A4300E064
:1021A0008A438281704781847047000030B502887D
:1021B0001B4C1C4DA0420DD0A8420BD0B0F1804F5B
:1021C00008D0194B984205D0184B984202D0184BB2
:1021D000984203D122F070034A881A43154B984263
:1021E00006D0154B984203D022F44073CA881A4394
:1021F00002808A8882850A880285A0420AD0A84285
:1022000008D00E4A904205D00D4A904202D00D4AA5
:10221000904201D1097A01860121818230BD0000FE
:10222000002C014000340140000400400008004040
:10223000000C00400010004000140040004001402D
:10224000004401400048014070B5154C40F2255152
:10225000204600F0AAF800281CD0204600F032F9F1
:10226000104CC5B22088000414D42088B0F5167F25
:1022700011D20D4E00213046FFF795FF208818B986
:1022800001213046FFF771FF208808490144401CB6
:1022900020800D7070BD208840F40040208070BD0B
:1022A000004C00402800002000140040BC0000202A
:1022B00070B5154C40F22551204600F076F8002804
:1022C0000ED0204600F0FEF8104AC1B21088030478
:1022D00006D444044FF0000306D50A2901D0138028
:1022E00070BD40F400400DE00D2909D0C0F30D048D
:1022F000074D401C80B229551080C728EFD870BD0B
:1023000040F48040108070BD003801402E00002055
:102310006C0500200029818902D041F4005101E0C0
:1023200021F4005181817047174910B588420AD1C4
:1023300001218C032046FFF7E1FD2046BDE8104057
:102340000021FFF7DBBD1149884202D101214C0475
:1023500010E00F49884202D101218C040AE00D49A6
:10236000884202D10121CC0404E00B4988420AD101
:1023700001210C052046FFF7A9FD2046BDE81040CD
:102380000021FFF7A3BD10BD00380140004400400C
:1023900000480040004C0040005000400246002031
:1023A00012880A4200D00120704770B501F01F0565
:1023B00001260024C1F3421306FA05F2012B0FD0C7
:1023C000022B0FD0838A4FEA11210088134206FAAC
:1023D00001F600EA060001D000B10124204670BDDC
:1023E0008389F0E7038AEEE710B5C1F3421301F0E9
:1023F0001F040121A140012B07D0022B07D014306C
:10240000002A026805D00A4304E00C30F8E71030D7
:10241000F6E78A43026010BD30B50446008A85B0F5
:102420000D464CF6FF710840E98801432182A089DE
:102430004EF6F3110840A9882A8911436A8902439C
:102440001143A181A08A4FF6FF410840A9890143A9
:10245000A1826846FFF75EFD1948844201D10398C6
:1024600000E00298A189090400EBC00101EB001013
:10247000296801D5490000E08900B0FBF1F0642231
:10248000B0FBF2F109010B096FF018056B4300EB8B
:102490008300A3891D044FF0320306D503EBC0006F
:1024A000B0FBF2F000F0070005E003EB0010B0FB1A
:1024B000F2F000F00F000843208105B030BD0000AD
:1024C000003801408088C0F308007047C1F308015C
:1024D00081807047FEE7490050EAC12018BF042000
:1024E0004A0D18BF40F0010040F2FF72B2EB515F9D
:1024F00008BF40F00200012808BF052070473038AF
:102500000A2801D2012070470020704770474FF41D
:10251000FA740A210920FFF747FC204601F0E2F88F
:10252000F7E7000001A102A000F0E2BD4F4B000060
:1025300041540000044CFFF7F5FF0028FBD0206950
:1025400001F006F9F7E700000000002010B50420B4
:10255000FFF77EFD0C480D490D4A0068B0FBF1F312
:10256000B0FBF1F14FF47A704143137001205080B9
:102570004FF0E020026942F002020261416101690C
:1025800041F00101016110BD1400002040420F0024
:102590002A00002070B5044601F0DCFD01280CD0B3
:1025A000094D6888844203D3B4FBF0F001F09AF837
:1025B0006888B4FBF0F100FB11444FF47A7060437B
:1025C000BDE8704000F002B82A00002070B54FF05E
:1025D000E02500216C69094AAB6912785043AA6969
:1025E0009A42FCD002D2A3EB020302E0A4EB020663
:1025F0003344194413468142F1D370BD2A000020B0
:1026000004490A885206FCD5024AC1B2121D118043
:10261000704700000038014010B54FF4E13000F081
:1026200021FE00F05BF802490120C1F8B40110BDA1
:1026300000802242044CD4F88001C043C4F88001D9
:10264000642001F04FF8F6E700002342094C4FF4F4
:10265000AF75D4F88401C043C4F88401962001F01A
:1026600041F8D4F88401C043C4F88401284601F03D
:1026700039F8EEE7000023421CB54FF44070FFF735
:1026800005FCFFF763FF4FF4FA1000F051FEFFF76F
:10269000A3FBFFF7D9FA09A0FDF76EFEFFF7BCFF19
:1026A00009490120CDE900010023802207A10A4841
:1026B00001F024FD01F076F900201CBD52756E6E0C
:1026C000696E67210D0A00000000002073746172BA
:1026D000745F7461736B00005D31000838B50121CF
:1026E0002020FFF7FFFB4FF40054ADF8004010200E
:1026F0008DF803000320064D8DF802006946284638
:10270000FFF7E8FA21462846FFF732FB38BD000004
:10271000001401402DE9F041184E0F460446F568BB
:102720003068001D00F054FE38B9306890F82C1065
:1027300001208840316981433161601C07D137B184
:102740003168BDE8F0410E48091D00F079BE3068DF
:102750002C44AC424460316805D2B06BBDE8F04116
:10276000091D00F055BE706B091D00F051FEB06AE6
:10277000844200D2B462BDE8F0810000480000202D
:10278000440900202DE9F041054600F065FE2D4E7C
:10279000B068401CB06030682B4F10B1706930B326
:1027A0002BE03560B068012827D1002404EB8400B9
:1027B00007EB800000F01EFE641C202CF6D323489B
:1027C00000F018FE2148143000F014FE1F48283095
:1027D00000F010FE1D483C3000F00CFE1B4850304D
:1027E00000F008FE194870631430B06305E03068EB
:1027F000E96AC06A884200D83560706A0121401CCD
:1028000070626864E86A326981401143316100EBAB
:10281000800007EB8000291D00F012FE00F058FE3A
:10282000706900280CD03068E96AC06A884207D213
:1028300007494FF080500860BFF34F8FBFF36F8F91
:10284000BDE8F0814800002074060020F408002054
:1028500004ED00E010B500F0FFFD0E4C2068A0B9BB
:102860000D4800F0C7FD0C48143000F0C3FD0A48C5
:10287000E0601430206100221021052001F074F97D
:10288000206010B105A100F0F9FEBDE8104000F095
:102890001FBE00008400002058090020546D7251B2
:1028A0000000000070B5124E124D1CE001F0C4F89B
:1028B000306820B1002401F07BFDA4B901E00124BF
:1028C000F9E700F0C9FDF068C468201D00F080FD44
:1028D000A868401EA8606868401E686000F0F8FDA7
:1028E000204600F052F868680028DFD170BD000073
:1028F000300900204800002030B4026C0B46002A4A
:102900000BD0C1681144C1604468A14201D3016881
:10291000C16030BC1846FDF796BE30BC70472DE94B
:10292000F041856B174604460026026C82B1C7B1A0
:10293000E068FDF788FEE168206C091AE160226812
:10294000914202D26168081AE060022F16D017E0A7
:102950002068A8B9606801F085FC06460020606028
:102960000EE0A068FDF76FFE216CA0680844A0602F
:102970006168884204D32068A06001E005B16D1E43
:102980006D1CA5633046BDE8F08110B50446006BB0
:1029900000F0D0FD2046BDE8104000F0CBBD0000A7
:1029A00010484FF4A041420706D0C01D0D4920F049
:1029B0000700411AC1F5A0410B4A00230144C2E9B6
:1029C00000030839103A21F0070111604B600B60D9
:1029D0000B1AC0E9001393604FF000405360D060C1
:1029E0007047000080090020A8000020074E4FF02B
:1029F0008054074DFFF756FF30680128FAD92C6044
:102A0000BFF34F8FBFF36F8FF4E700007406002011
:102A100004ED00E02DE9F047DDE909840E46174694
:102A2000824691009946089DA522206BFDF750FE35
:102A30006FF00301206B01EB8701084420F00707CA
:102A4000780705D040F22B3219A11EA0FDF794FCA7
:102A500000202218315C82F83410315C11B1401C26
:102A60001028F6D3002684F84360202D00D31F25BC
:102A7000E562C4E91356201D00F0C7FC04F11800FC
:102A800000F0C3FC2461C5F120006462A0616665AA
:102A900084F858604A465146384600F003FB2060EF
:102AA000B8F1000F01D0C8F80040BDE8F087000081
:102AB0002E2E5C4672656552544F535C7461736B85
:102AC000732E63004572726F723A25732C25640D64
:102AD0000A00000030B5114900E011460A68824240
:102AE000FBD34B685C18844203D1406818444860AB
:102AF000084643681C18944209D1084C103C2468CD
:102B0000A24209D052681A4442600A681268026000
:102B1000814200D0086030BD0460F9E7A8000020C1
:102B200070B5002441600B4D0061914206D8D11A66
:102B30008269914206D2011D286907E09A4203D2B8
:102B4000994201D3012403E0011DE86800F060FC14
:102B5000204670BD8400002010B5044600F07CFCC7
:102B6000A06B20B1002400F0B3FC204610BD01246E
:102B7000F9E700002DE9F34100980F460026846C28
:102B80002CB940F6CE1216A11AA0FDF7F5FBA06BEA
:102B9000E16B884205D340F6CF1211A115A0FDF7D5
:102BA000EBFBA06BE16B88420CD294F945503A469E
:102BB00069462046FFF7B3FE0646681C05D06D1C2B
:102BC00084F845503046BDE8FC81606A0028F9D0A1
:102BD00004F1240001F0A0FB0028F3D00126F1E766
:102BE0002E2E5C4672656552544F535C7175657547
:102BF000652E63004572726F723A25732C25640D41
:102C00000A000000F8B5054614480E46C068C068C2
:102C1000C468201D00F0DCFBE069012817D1A06921
:102C20002B46411932462046FFF77AFF78B1002043
:102C30000346014600902A46204601F09FFC30B929
:102C400007494FF4027201F11800FDF795FB616A24
:102C500001B02046BDE8F040084700008400002095
:102C6000E044000870B586B02F4E53E0019800286C
:102C700006DADDE90301029A90470198002849DB52
:102C8000039C606910B1201D00F0A2FB05A800F0B4
:102C9000A7F8054601980A283CD2DFE800F00505B0
:102CA000053B273805053B270298A16903460144E7
:102CB0002A462046FFF734FF00282BD0616A2046C1
:102CC0008847E069012825D1002000900298A16979
:102CD000002342181946204601F050FCD0B940F2BA
:102CE000213212A117A0FDF747FB13E00298A06163
:102CF00028B94FF44E720DA112A0FDF73DFBA0695B
:102D00002B4641191A462046FFF70AFF02E02046EB
:102D100000F010FC00231A4601A9306800F060FFA3
:102D20000028A3D106B070BD840000202E2E5C4682
:102D300072656552544F535C74696D6572732E638E
:102D4000000000004572726F723A25732C25640DE5
:102D50000A000000F8B50D46064600F06DFE684614
:102D600000F03EF80446009810B101F021FBF8BDD8
:102D70001148ADB101690968D9B10025311B2A4656
:102D8000006800F08DFC01F013FB0028EFD10B4927
:102D90004FF080500860BFF34F8FBFF36F8FF8BDC7
:102DA000A642EBD801F004FB21463046FFF72AFF8C
:102DB000F8BD0125E2E700008400002004ED00E0FA
:102DC0000648416B096829B1416BC968C9684968FF
:102DD000816270474FF0FF31FAE7000048000020A1
:102DE00070B5054601F0C4F9064E0446B068844249
:102DF00003D200F009F8012000E0002028602046FE
:102E0000B46070BD84000020F8B5184E26E0C0689C
:102E1000C4680568201D00F0DBFA616A2046884717
:102E2000E06901281AD1A0692844A84206D9246182
:102E30006060211DF06800F0EBFA0FE0002003460F
:102E4000014600902A46204601F098FB30B9084917
:102E500040F2923201F11800FDF78EFAF068016835
:102E60000029D4D13169C6E90310F8BD84000020DF
:102E7000E044000808484068401C04D0F42207A140
:102E800011A0FDF779FA502080F31188BFF34F8F1E
:102E9000BFF36F8FFEE70000B00000202E2E5C46CF
:102EA00072656552544F535C706F727461626C65E9
:102EB0005C525644535C41524D5F434D335C706FDE
:102EC00072742E63000000004572726F723A2573AF
:102ED0002C25640D0A000000084CE068016839B137
:102EE000002139B10020FFF735FFFFF7BBFEF4E703
:102EF0000121F6E7C0680068F5E7000084000020C3
:102F00002DE9F041044600F0A7FA94F9455004F188
:102F1000240610E0A06C20B100212046FFF72AFE15
:102F200004E0606A48B1304601F0F6F908B100F0FB
:102F300075FC6D1E6DB2002DECDC4FF0FF3684F891
:102F4000456000F0C5FA00F087FA94F9445004F1A6
:102F5000100709E0206948B1384601F0DDF908B1F1
:102F600000F05CFC6D1E6DB2002DF3DC84F8446053
:102F7000BDE8F04100F0ACBA2DE9F041054600266D
:102F800000F05AFD324F386808B9FFF709FDF868BC
:102F900005424FD1002D4DD0083568070BD005F004
:102FA0000700C0F108000544680704D0BF2229A12A
:102FB00032A0FDF7E1F9002D3CD07868854239D880
:102FC000234910310846046801E021460446606840
:102FD000A84202D220680028F7D13868B846844257
:102FE00028D00E682068086060680836401B1028EA
:102FF0000ED96719780704D0EC2216A11FA0FDF79F
:10300000BBF96068401B786038466560FFF762FD79
:103010006168D8F804004246401AC8F80400D8F89D
:103020000830984200D29060D8F80C00014300208C
:10303000C4E9000101F0BCF9700705D04FF49672A5
:1030400004A10EA0FDF798F93046BDE8F08100001C
:10305000980000202E2E5C4672656552544F535CDA
:10306000706F727461626C655C4D656D4D616E6709
:103070005C686561705F342E630000004572726F9A
:10308000723A25732C25640D0A0000000449086873
:1030900018B10868026D521C02650868704700008C
:1030A0004800002010B5031F4FF080741C601B1FE8
:1030B00021F001011960191F024B0B6014394038CF
:1030C0000A6010BD752E0008074A014600201388CB
:1030D0001B0407D51288054BC2F30E0298541846FC
:1030E000FDF780BA7047000028000020BC000020D7
:1030F0002DE9F041144C00270E4602463D4627803C
:10310000FF2807D8114801884906FCD50F48001D43
:10311000028003E001460EA000F07EF88EB114207C
:1031200000F0E0FA208800040BD53046FFF7CCFF12
:1031300030B1094906A0FDF71FF90120BDE8F08173
:1031400025803846FAE7000028000020004C0040A7
:1031500025730D0A00000000BC0000201CB500F023
:103160007BF91A490220CDE900010023322218A17F
:103170001A4800F0C3FF15490320091DCDE90001DD
:103180000023322216A1194800F0B8FF0F4904208D
:103190000831CDE900010023322215A1174800F0C3
:1031A000ADFF0A4905200C31CDE90001002364225E
:1031B00013A1184800F0A2FF0448001F006800F0A7
:1031C000C7FABDE81C4000F083B9000004000020ED
:1031D0006C6564305F7461736B0000003526000815
:1031E0006C6564315F7461736B0000004D260008EC
:1031F0006164635F7461736B000000000F25000859
:10320000636865636B5F73696D383030635F7461E9
:10321000736B0000352500080FB410482DE9F0410C
:1032200007AA0699FDF796F80C48FDF7EDF985B267
:1032300000240B4E094F0BE040213046FFF7AEF85B
:103240000028F9D0395D3046FFF740F9641CA4B27C
:10325000AC42F1D3BDE8F0015DF814FB140300208B
:10326000004C0040F0B5044687B001211020FEF765
:1032700039FE0121C804FEF71DFE294E3046FFF736
:1032800053F83015ADF8100003258DF812501820B2
:10329000244F8DF8130004A93846FEF71BFDF014E7
:1032A000ADF8100004208DF8130004A93846FEF78D
:1032B00011FD00940024ADF808400C20ADF8044046
:1032C000ADF80A00ADF80640ADF80C40694630464E
:1032D000FFF7A2F801213046FFF71CF8012240F267
:1032E00025513046FFF780F834208DF81400022075
:1032F0008DF815008DF8165001208DF8170005A8DF
:10330000FEF792FD41F61F416320FEF7FBFE0648E3
:10331000048000210548FEF728FF07B0F0BD00003B
:10332000004C004000100140280000200014004024
:1033300070B5054686B0012144F20400FEF7D2FDC7
:103340004FF40070ADF8100003248DF812401820DF
:103350001D4E8DF8130004A93046FEF7BBFC301556
:10336000ADF8100004208DF8130004A93046FEF7D4
:10337000B1FC25208DF814008DF815408DF816400D
:1033800001208DF8170005A8FEF74EFD0020ADF8CE
:103390000400ADF80600ADF80800ADF80C000C20F4
:1033A0000A4CADF80A00009569462046FFF734F84C
:1033B000012240F225512046FFF716F80121204650
:1033C000FEF7A8FF06B070BD0008014000380140BC
:1033D000D0E9013201699A60D0E901235A604A6854
:1033E000824201D182684A60002202610868401E60
:1033F0000860704700F108014FF0FF32C0E9011288
:10340000C1600161002101607047002101617047C6
:1034100030B50C68621C02D000F1080202E00269BB
:1034200004E01A4653681D68A542FAD953684B60F8
:1034300099608A60516008610168491C016030BD73
:1034400042684A6093688B60936859609160086134
:103450000168491C01607047502080F31188BFF358
:103460004F8FBFF36F8F09494868401C486001289F
:103470000AD10748006810F0FF0F05D04FF4BD7265
:1034800004A10FA0FCF778BF70470000B000002037
:1034900004ED00E02E2E5C4672656552544F535C7D
:1034A000706F727461626C655C525644535C415239
:1034B0004D5F434D335C706F72742E6300000000EB
:1034C0004572726F723A25732C25640D0A00000054
:1034D00010B5084C606828B940F2811206A111A00D
:1034E000FCF74AFF6068401E606001D180F31188DC
:1034F00010BD0000B00000202E2E5C4672656552A3
:10350000544F535C706F727461626C655C525644C8
:10351000535C41524D5F434D335C706F72742E6348
:10352000000000004572726F723A25732C25640DFD
:103530000A00000070B500282AD0164DA0F108043A
:103540006068E968084205D14FF4A07212A11CA07E
:10355000FCF712FF206828B140F241120EA118A01A
:10356000FCF70AFF6068E968084211D02268002A67
:103570000ED18843606000F05FFA606869680844B3
:1035800068602046FFF7A6FABDE8704000F010BF63
:1035900070BD0000980000202E2E5C4672656552BA
:1035A000544F535C706F727461626C655C4D656DF5
:1035B0004D616E675C686561705F342E630000006A
:1035C0004572726F723A25732C25640D0A00000053
:1035D00006484FF47A710068B0FBF1F14FF0E0203B
:1035E000491E41610721016170470000140000205D
:1035F00010B5FCF789FE104C10280CD300F1E02028
:1036000090F8F0032178884205D24FF42A720BA17A
:1036100015A0FCF7B1FE18480068A16800F4E0604E
:10362000884207D9BDE810404FF42E7203A10EA0C6
:10363000FCF7A2BE10BD0000B00000202E2E5C469C
:1036400072656552544F535C706F727461626C6541
:103650005C525644535C41524D5F434D335C706F36
:1036600072742E63000000004572726F723A257307
:103670002C25640D0A0000000CED00E010B5074B8E
:10368000002253F832401CB1521C082AF9D310BD55
:1036900043F8321003EBC201486010BD340600202D
:1036A00070B515460E460446FFF7D6FE94F9441051
:1036B0000020491C01D184F8440094F94510491CAC
:1036C00001D184F84500FFF703FFA06B28B92A4613
:1036D000314604F1240000F0D1F82046BDE87040E6
:1036E000FFF70EBC10B5040012D00E49096B29B1CA
:1036F00040F2CF420CA111A0FCF73EFE00F09CF975
:1037000000212046FFF706F800F052FE002807D1FE
:103710000E494FF080500860BFF34F8FBFF36F8F9B
:1037200010BD0000480000202E2E5C4672656552D8
:10373000544F535C7461736B732E63004572726FE8
:10374000723A25732C25640D0A00000004ED00E098
:1037500070B50446FFF780FE234D04B92C68201D88
:10376000FFF736FE58B9E06A204A00EB800152F8B4
:10377000211021B901218140286988432861A06A6C
:1037800018B104F11800FFF723FE686A401C686254
:103790002868844207D1211D1548FFF751FE68684B
:1037A000401C686007E0A868401EA8602046FFF73C
:1037B000ECF8FFF705FBFFF78BFE6869002812D0D5
:1037C000286884420FD1286B28B140F2654209A1D4
:1037D0000DA0FCF7D1FD10494FF080500860BFF3F9
:1037E0004F8FBFF36F8F70BD48000020740600201C
:1037F000300900202E2E5C4672656552544F535C92
:103800007461736B732E63004572726F723A257325
:103810002C25640D0A00000004ED00E001490120A0
:10382000C86170474800002070B50D46040005D1FE
:1038300040F6063207A10CA0FCF79EFD0E48016879
:1038400020461831FFF7E4FD2846BDE8704001210D
:10385000FEF760BF2E2E5C4672656552544F535C76
:103860007461736B732E63004572726F723A2573C5
:103870002C25640D0A0000004800002070B5144695
:103880000E46050005D140F6313209A10DA0FCF726
:1038900073FD1048016828461831FFF7D1FD0CB1BF
:1038A0004FF0FF3621463046BDE87040FEF732BF8C
:1038B0002E2E5C4672656552544F535C7461736B77
:1038C000732E63004572726F723A25732C25640D56
:1038D0000A0000004800002070B5040039D01D4DDA
:1038E000E06A2968C96A884233D2A069002804DBEB
:1038F0002868C06AC0F12000A061E06A164E00EBA3
:103900008000616906EB800081421FD1201DFFF716
:103910005FFD012150B9E06A00EB800256F82220D9
:1039200022B92A6901FA00F082432A612868C06A34
:10393000E0622A6981401143296100EB800006EBB7
:103940008000211DBDE87040FFF77ABD2868C06A7D
:10395000E06270BD480000207406002010B504002D
:1039600005D140F6C13205A109A0FCF705FD0C48C0
:10397000016A2160C068606010BD00002E2E5C46A8
:1039800072656552544F535C7461736B732E6300A0
:103990004572726F723A25732C25640D0A0000007F
:1039A000480000201CB517480024CDE900402346FC
:1039B000822215A1164800F0A1FB012803D100F0D6
:1039C000A3FD01280AD0401C1BD102B040F2847232
:1039D000BDE810400FA114A0FCF7CEBC502080F32E
:1039E0001188BFF34F8FBFF36F8F06484FF0FF3141
:1039F0002C38816201214161C460BDE81C4000F0A7
:103A000061B81CBD7400002049444C450000000012
:103A1000ED2900082E2E5C4672656552544F535CAA
:103A20007461736B732E63004572726F723A257303
:103A30002C25640D0A0000000248016B491C01633B
:103A4000704700004800002070B5134D286B10B17E
:103A50000120E86170BD0020E86128690F4EB0FACE
:103A600080F0C0F11F0000EB800456F8240028B954
:103A700040F6F6220AA10FA0FCF77EFC06EB8400BC
:103A800000F10802416849684160914201D14968EA
:103A90004160C868286070BD48000020740600209E
:103AA0002E2E5C4672656552544F535C7461736B85
:103AB000732E63004572726F723A25732C25640D64
:103AC0000A0000001CB51A4908780190FF20087010
:103AD00008788DF800009DF80000164A00F05000AC
:103AE00010700720906007E09068401E90609DF87D
:103AF000000040008DF800009DF800000006F3D49F
:103B0000107A000200F4E0609060019808700A48A2
:103B1000016841F470010160016841F07041016089
:103B2000FFF756FD00205060FCF7B8FB00201CBDDD
:103B300000E400E0B000002020ED00E010B55020CF
:103B400080F31188BFF34F8FBFF36F8F00F016FB28
:103B500018B104494FF080500860002080F31188AC
:103B600010BD000004ED00E02DE9F04117460E46BF
:103B7000050005D14FF4C47210A115A0FCF7FCFBA1
:103B8000BEB105FB06F05430FFF7F6F904000ED085
:103B900004F154007EB12060C4E90F562046012193
:103BA00000F0E0F884F8507000212046A164BDE8E0
:103BB000F0810020E7E72460EEE700002E2E5C464F
:103BC00072656552544F535C71756575652E63005F
:103BD0004572726F723A25732C25640D0A0000003D
:103BE0002DE9FF4F83B09B468A4604004FF0000644
:103BF00005D140F2DC4251A155A0FCF7BDFBBAF162
:103C0000000F07D1206C28B140F2DD424BA150A03B
:103C1000FCF7B2FB00F09EFA38B9059828B14FF4D2
:103C20009C6246A14AA0FCF7A7FB4FF000094FF0A9
:103C30008057DFF82C81FFF70FFCA56B45B3514689
:103C40002046E668FEF758FEBBF1000F13D0E66091
:103C5000606A50B104F1240000F05EFB28B1C8F89E
:103C60000070BFF34F8FBFF36F8FFFF731FC012060
:103C700007B0BDE8F08F6D1EA563206810B9FFF78F
:103C800005FA606020690028EFD004F11000E3E736
:103C9000059808B11EB106E0FFF71AFC27E0684658
:103CA000FFF75CFE0126FFF713FCFFF7C5FEFFF7E9
:103CB000D3FB94F94400401C01D184F8449094F95A
:103CC0004500401C01D184F84590FFF701FC05A98F
:103CD000684600F0CFF9002820460AD0FFF710F917
:103CE00000F066FB2046FEF737FF0028A3D0002037
:103CF000BEE7FEF731FFD8B1206830B9FFF7ACFB63
:103D00006068FFF7E9FDFFF7E3FB04F12400059984
:103D1000FFF78AFD2046FFF7F3F800F049FB002883
:103D200089D1C8F80070BFF34F8FBFF36F8F82E760
:103D30002046FFF7E5F800F03BFB7CE72E2E5C46C3
:103D400072656552544F535C71756575652E6300DD
:103D50004572726F723A25732C25640D0A000000BB
:103D600004ED00E070B50D46040005D140F21B12D1
:103D70001CA121A0FCF700FBFFF76EFBD4E90F208C
:103D8000216802FB001161600021A1632168A1602C
:103D90000A46D4E90F01401E00FB0121E1602146E3
:103DA0004FF0FF3001F8440F487004F110004DB19E
:103DB000FFF720FB04F12400FFF71CFBFFF788FB53
:103DC000012070BD21690029F8D000F0A5FA002873
:103DD000F4D00D494FF080500860BFF34F8FBFF310
:103DE0006F8FEBE72E2E5C4672656552544F535C25
:103DF00071756575652E63004572726F723A257331
:103E00002C25640D0A00000004ED00E02DE9FF4FB1
:103E100083B099468B4604004FF0000605D140F26E
:103E2000D92252A156A0FCF7A7FABBF1000F07D187
:103E3000206C28B140F2DA224CA151A0FCF79CFA88
:103E4000B9F1020F08D1E06B012805D040F2DB2266
:103E500046A14BA0FCF790FA00F07CF938B9059820
:103E600028B140F2DE2241A145A0FCF785FA4FF0CF
:103E7000000A4FF08057DFF81881FFF7EDFAA06BCA
:103E8000E16B884206D3B9F1020F03D0059800B365
:103E900016B325E04A4659462046FEF740FDA16C80
:103EA00021B149462046FEF765FE05E0616A19B179
:103EB00004F1240000F030FA28B1C8F80070BFF314
:103EC0004F8FBFF36F8FFFF703FB012007B0BDE8F3
:103ED000F08FFFF7FDFA21E06846FFF73FFD01266E
:103EE000FFF7F6FAFFF7A8FDFFF7B6FA94F94400DA
:103EF000401C01D184F844A094F94500401C01D134
:103F000084F845A0FFF7E4FA05A9684600F0B2F886
:103F100030B12046FEF7F4FF00F04AFA0020D5E762
:103F2000FFF79AFAA06BE16B884201D1012500E00E
:103F30000025FFF7CDFA95B104F110000599FFF7C0
:103F400073FC2046FEF7DCFF00F032FA002894D123
:103F5000C8F80070BFF34F8FBFF36F8F8DE7204617
:103F6000FEF7CEFF00F024FA87E700002E2E5C4615
:103F700072656552544F535C71756575652E6300AB
:103F80004572726F723A25732C25640D0A00000089
:103F900004ED00E02DE9F0479846154689460400F7
:103FA00005D140F29F322AA12EA0FCF7E5F9B9F124
:103FB000000F07D1206C28B14FF4687224A129A00A
:103FC000FCF7DAF9B8F1020F08D1E06B012805D04F
:103FD00040F2A1321EA123A0FCF7CEF9FFF708FBA7
:103FE0005020EFF3118780F31188BFF34F8FBFF399
:103FF0006F8FA06BE16B884207D3B8F1020F04D03A
:10400000002087F31188BDE8F08794F945604246A7
:1040100049462046FEF783FC701C04D0761C84F8C9
:1040200045600120EDE7A06C012620B14146204605
:10403000FEF7A0FD06E0606A0028F2D004F124003B
:1040400000F06AF90028ECD0002DEAD02E60E8E7F5
:104050002E2E5C4672656552544F535C71756575C2
:10406000652E63004572726F723A25732C25640DBC
:104070000A00000070B50D46040005D140F6CB32B1
:1040800014A119A0FCF778F92DB940F6CC3211A192
:1040900015A0FCF771F9FFF7DFF9174AD068296816
:1040A0004B1C0FD02368126A934202D0626882428E
:1040B0000AD96268801A884206D2081A2860204607
:1040C000FFF74CFC002400E00124FFF701FA204632
:1040D00070BD00002E2E5C4672656552544F535CD5
:1040E0007461736B732E63004572726F723A25733D
:1040F0002C25640D0A000000480000202DE9FF5F18
:104100008346DDE90E87994616468A469000FEF7FB
:1041100033FF05001AD05C20FEF72EFF040012D0FA
:1041200025630021CDE90241CDE900874B463246A7
:1041300051465846FEF76EFC2046FEF723FB012051
:1041400004B0BDE8F09F2846FFF7F4F94FF0FF30C8
:10415000F6E700000548416919B1006B18B100206D
:10416000704701207047022070470000480000207F
:104170000148C06870470000480000202DE9F04168
:104180002D4F0026386B40B1B869401CB861F86902
:1041900000B101263046BDE8F081FD686D1CFD6070
:1041A00011D1786B006828B140F6D91223A128A05C
:1041B000FCF7E2F8786BB96B7963B863386A401C36
:1041C0003862FEF7FDFDB86ADFF89480854209D3B6
:1041D000786B006880B1786BC068C468606885429D
:1041E0000DD2B8623868C06A00EB800158F821002F
:1041F0000128CCD90126CAE74FF0FF30F1E7201D96
:10420000FFF7E6F8A06A18B104F11800FFF7E0F82C
:10421000E06A01213A6981401143396100EB800174
:1042200008EB8100211DFFF70BF9E06A3968C96AC4
:104230008842CDD30126CBE7480000202E2E5C46D5
:1042400072656552544F535C7461736B732E6300D7
:104250004572726F723A25732C25640D0A000000B6
:104260007406002070B504004FF000063CD01F4DCE
:104270002868844205D040F6C7621DA121A0FCF742
:104280007BF8206D28B940F6C96219A11DA0FCF782
:1042900073F8206D401E2065E26CE16A914223D0E4
:1042A00010BB201DFFF794F81A49012250B9E06AAB
:1042B00000EB800351F8233023B92B6902FA00F098
:1042C00083432B61E06CE062C0F12000A061E06AF2
:1042D0002B6982401A432A6100EB800001EB8000C9
:1042E000211DFFF7ADF80126304670BD48000020C3
:1042F0002E2E5C4672656552544F535C7461736B2D
:10430000732E63004572726F723A25732C25640D0B
:104310000A000000740600202DE9F041C068C4685E
:104320002CB940F6613216A11AA0FCF725F804F169
:1043300018000746FFF74CF81A4D286B012660B1AC
:1043400039461948FFF77CF8E06A2968C96A88424B
:1043500013D90120EE61BDE8F081201DFFF738F888
:10436000E06A2A6906FA00F1114329610F4900EB5E
:10437000800001EB8000211DE4E70020EBE7000056
:104380002E2E5C4672656552544F535C7461736B9C
:10439000732E63004572726F723A25732C25640D7B
:1043A0000A000000480000201C09002074060020BC
:1043B0002DE9F0472B4D00242746286B28B94FF4F0
:1043C000FD6229A12DA0FBF7D7FFFFF745F8286B69
:1043D000401E2863286BE8BBA8682C490126C8B397
:1043E000A1F52A798846D8F80010E9B1D8F80C0070
:1043F000C46804F11800FEF7EBFF201DFEF7E8FF8C
:10440000E06A2A6906FA00F11143296100EB800194
:1044100009EB8100211DFFF713F8E06A2968C96ADA
:104420008842E0D3EE61DEE70CB1FEF7C9FCAC696F
:104430003CB1FFF7A3FE00B1EE61641EF9D100208C
:10444000A861E86930B11249012738070860BFF355
:104450004F8F00E001E0BFF36F8FFFF739F8384668
:10446000BDE8F087480000202E2E5C46726565523C
:10447000544F535C7461736B732E63004572726F9B
:10448000723A25732C25640D0A0000001C090020D7
:1044900004ED00E02DE9F0470746994616460D4623
:1044A0002C20DDF820A0FEF767FD040014D0B846EC
:1044B0004F46D1462DB94FF4C67209A10EA0FBF7A5
:1044C0005BFFFEF7C7F904F11801C4F8008081E82A
:1044D000E002201DFEF799FF2046BDE8F0870000AE
:1044E0002E2E5C4672656552544F535C74696D653F
:1044F00072732E63000000004572726F723A25736A
:104500002C25640D0A0000001CB50024FEF7A2F95A
:104510000C48006868B10B491F20091DCDE9000156
:1045200000234FF4827208A10948FFF7E7FD040059
:1045300005D140F2331207A10CA0FBF71DFF204666
:104540001CBD000084000020546D7220537663006F
:10455000D92E00082E2E5C4672656552544F535C6E
:1045600074696D6572732E63000000004572726F8E
:10457000723A25732C25640D0A0000002DE9FF47CF
:10458000DDF830A0994690460D4606004FF0000732
:1045900005D14FF4D37212A117A0FBF7EDFE1A4C10
:1045A000206880B1CDE900580296062D11DAFFF798
:1045B000D1FD02284FF0000309D00022694620688F
:1045C000FFF724FC074604B03846BDE8F0875246A2
:1045D000F4E700234A466946FFF7DCFCF2E70000F7
:1045E0002E2E5C4672656552544F535C74696D653E
:1045F00072732E63000000004572726F723A257369
:104600002C25640D0A0000008400002010B500294C
:104610000AD00878002807D005487844FCF762FEE5
:10462000002801D0002010BD0248784410BD0000D1
:10463000460100003E01000010B500290AD00878AC
:10464000002807D005487844FCF74CFE002801D02C
:10465000002010BD0248784410BD00003601000063
:104660002E010000FCF7BEBB0400000800000000A3
:104670000000000200010000100000000000000027
:10468000000000003031323334353637383941429A
:1046900043444546403058003031323334353637A4
:1046A000383961626364656640307800024000001A
:1046B000000000A00000000005400000000000C84D
:1046C000000000000C4000000000409C00000000C2
:1046D000194000000020BCBE000000003440000073
:1046E000BFC91B8E00000004B5400000504BCFD066
:1046F0006607E2CF010000006C4100003E8251AA33
:10470000DFEEA73401000000D9420000DCB5A0E2D2
:104710003A301F97FFFFFFFFB4450000FD25A0C8FA
:10472000E9A3C14FFFFFFFFFFF3F00000000008033
:1047300000000000FF3F00000000008000000000BB
:104740008C48000800000020BC0000006C0100083C
:1047500048490008BC000020245F000088010008D0
:104760001C00000043000000F8FFFFFF0C000000E9
:104770000E0000000F0000002E00000010010000DD
:1047800043000000F8FFFFFF004040404040404031
:104790004040414141414140404040404040404014
:1047A00040404040404040404005020202020202B8
:1047B0000202020202020202022020202020202007
:1047C000202020020202020202029090909090901B
:1047D00010101010101010101010101010101010D9
:1047E000101010100202020202028888888888884D
:1047F0000808080808080808080808080808080839
:104800000808080802020202400000000000000040
:104810000000000000000000000000000000000098
:104820000000000000000000000000000000000088
:104830000000000000000000000000000000000078
:104840000000000000000000000000000000000068
:104850000000000000000000000000000000000058
:104860000000000000000000000000000000000048
:104870000000000000000000000000000000000038
:104880000000000000000000000000000000000028
:104890000000000000000000000000000000000018
:1048A00000A24A040000000000000000010203040E
:1048B00006070809000000000000000000000000DA
:1048C00002040608000000000102030401020304C0
:1048D00006070809000000000000000000000000BA
:1048E00000000000000000000000000000000000C8
:1048F00000000000000000000000000000000000B8
:1049000000000000000000000000000000000000A7
:104910000000000000000000000000000000000097
:104920000000000000000000000000000000000087
:104930000000000000000000000000000000000077
:08494000AAAAAAAA00000000C7
:0400000508000311DB
:00000001FF
